:100000000C9405010C9436010C9436010C943601C5
:100010000C9436010C9436010C9436010C94360184
:100020000C9436010C9436010C9436010C94360174
:100030000C9436010C9436010C9436010C94360164
:100040000C9436010C9436010C9436010C94360154
:100050000C9436010C9436010C9436010C949906DC
:100060000C9436010C946D070C9443070C943601E4
:100070000C9436010C9436010C9436010C94360124
:100080000C9436010C9436010C9436010C94360114
:100090000C940D070C94E3060C9436010C94360175
:1000A0000C9436010C9436010C9436010C943601F4
:1000B0000C9436010C9436010C9436010C943601E4
:1000C0000C9436010C9436010C9436010C943601D4
:1000D0000C9436010C9436010C9436010C943601C4
:1000E0000C9436010C9472060C9447050C94A805E8
:1000F0000C94F5020C944F060C949B030C94410451
:100100000C9463040C9438020C94A3070C943F04E1
:100110000C9493030C945B050C9497030C94860544
:100120000C9436050C9481050C94F6020C94110580
:100130000C9477050C941F050C94B2030C94D40115
:100140000C94CC030C9472050C943C050C94C803DD
:100150000C9451060C9443040C94F4040C94600524
:100160000C9456050C94E8010C9422050C94DB04C5
:100170000C9483040C9465030C9466050C94C501DF
:100180000C94F9020C94CA030C9498010C942A055F
:100190000C9430050C948F030C94DF040C947C05B4
:1001A0000C944C050C94FB020C9451050C941A050C
:1001B0000C9489050C94BE030C94E0040C94610427
:1001C0000C9453060C94A3040C94EC030C94F601C9
:1001D0000C94C2030C94CE030C946C050C9407038E
:1001E0000C9424050C9414030C9485020C9435068D
:1001F0000C9442050C94BB040C94C5030C94B103FD
:100200000C9499030C940505A30711241FBECFEF8E
:10021000D1E2DEBFCDBF00E00CBF14E0A0E0B2E051
:10022000EAEBFBE100E00BBF02C007900D92AC339C
:10023000B107D9F726E0ACE3B4E001C01D92A430C9
:10024000B207E1F711E0C5E0D1E000E006C0219778
:100250000109802FFE010E949C0CC430D10780E070
:100260000807A9F70E94F6070C94DB0D0C94000018
:10027000DC01ED91FC910684F785E02D40E061E022
:1002800019943FB7F8948091C2049091C304A0914F
:10029000C404B091C50426B5A89B05C02F3F19F032
:1002A0000196A11DB11D3FBFBA2FA92F982F8827F6
:1002B000BC01CD01620F711D811D911D42E0660FD1
:1002C000771F881F991F4A95D1F708958F929F92A3
:1002D000AF92BF92CF92DF92EF92FF924B015C01FF
:1002E0000E9441016B017C010E9441016C197D0952
:1002F0008E099F09683E734081059105A8F321E0AE
:10030000821A9108A108B10888EEC80E83E0D81EB1
:10031000E11CF11C81149104A104B10429F7FF90A0
:10032000EF90DF90CF90BF90AF909F908F90089507
:10033000AF92BF92CF92DF92EF92FF920F931F93F3
:10034000CF93DF936C017B018B01040F151FEB0131
:100350005E01AE18BF08C017D10759F06991D601E8
:10036000ED91FC910190F081E02DC6011995892B4A
:1003700079F7C501DF91CF911F910F91FF90EF9019
:10038000DF90CF90BF90AF900895FC01538D448DC6
:10039000252F30E0842F90E0821B930B541710F030
:1003A000CF96089501970895FC01918D828D98173D
:1003B00061F0A28DAE0FBF2FB11D5D968C91928D15
:1003C0009F5F9F73928F90E008958FEF9FEF089546
:1003D000FC01918D828D981731F0828DE80FF11D0F
:1003E000858D90E008958FEF9FEF0895FC01918D2A
:1003F000228D892F90E0805C9F4F821B91098F7323
:100400009927089586EC94E00E94F60121E0892B5B
:1004100009F420E0822F089583E695E00E94F6011A
:1004200021E0892B09F420E0822F0895FC01A48D9E
:10043000A80FB92FB11DA35ABF4F2C91848D90E006
:1004400001968F739927848FA689B7892C93A089E9
:10045000B1898C91837080648C93938D848D981373
:1004600006C00288F389E02D80818F7D8083089506
:10047000EF92FF920F931F93CF93DF93EC0181E0F4
:10048000888F9B8D8C8D98131AC0E889F98980819B
:1004900085FF15C09FB7F894EE89FF896083E889CE
:1004A000F98980818370806480839FBF81E090E0C0
:1004B000DF91CF911F910F91FF90EF900895F62E4D
:1004C0000B8D10E00F5F1F4F0F731127E02E8C8DE7
:1004D0008E110CC00FB607FCFACFE889F98980812C
:1004E00085FFF5CFCE010E941602F1CFEB8DEC0F08
:1004F000FD2FF11DE35AFF4FF0829FB7F8940B8F49
:10050000EA89FB8980818062CFCFCF93DF93EC01B2
:10051000888D8823B9F0AA89BB89E889F9898C91EB
:1005200085FD03C0808186FD0DC00FB607FCF7CFA7
:100530008C9185FFF2CF808185FFEDCFCE010E94A7
:100540001602E9CFDF91CF91089580E090E0892BEA
:1005500029F00E940C0281110E94000080E090E0CE
:10056000892B29F00E94020281110E94000080E084
:1005700090E0892B49F080E090E0892B29F00E94DF
:10058000000081110E94000080E090E0892B49F07A
:1005900080E090E0892B29F00E94000081110C94EA
:1005A00000000895DC01ED91FC91068CF78DE02DA3
:1005B0001994DC01ED91FC910688F789E02D1994DE
:1005C000DC01ED91FC910488F589E02D1994DC01A2
:1005D000ED91FC910484F585E02D1994DC01ED91F9
:1005E000FC910284F385E02D1994089584EB92E048
:1005F000089580E008956230710540F0CB01880FC6
:10060000991F880F991F05970197F1F70895DC014D
:1006100014968D919C91DC01ED91FC910680F781FF
:10062000E02D199581E00895CF92DF92EF92FF922D
:100630000F931F93CF93DF938C01EB017A01690134
:10064000DC0114968D919C91DC01ED91FC9100846C
:10065000F185E02D1995E816F906E0F0F601918391
:1006600080837E01F60140815181C7018C1B9D0B67
:10067000D8018417950790F414968D919C91DC0114
:10068000ED91FC910284F385E02D1995F70181939A
:100690007F01E8CFD601ED92FC92E3CF12968D91C7
:1006A0009C91009741F0DC01ED91FC910680F7816F
:1006B000E02DBE01199581E0DF91CF911F910F913F
:1006C000FF90EF90DF90CF900895EF92FF920F93FD
:1006D0001F93CF93DF937C01EB018A01DC0112961B
:1006E0008D919C91009739F0DC01ED91FC91048093
:1006F000F581E02D1995F70184819581DC01ED915B
:10070000FC910280F381E02DA801BE01199581E0E2
:10071000DF91CF911F910F91FF90EF900895FC0111
:10072000138212820895FC0173836283089580E02E
:10073000089580E00895CF93DF931F92CDB7DEB781
:100740006983DC01ED91FC910480F581E02D41E0AD
:1007500050E0BE016F5F7F4F19950F90DF91CF91F1
:10076000089508956230710540F0CB01880F991FFC
:10077000880F991F05970197F1F70895FC0184816F
:100780009581089584EC92E0089590E080E00895CA
:1007900080E0089580E0089580E00895CF93DF938E
:1007A0001F921F92CDB7DEB72FEE260F273090F4A1
:1007B0001A8219826983DC01ED91FC91068CF78D18
:1007C000E02DBE016F5F7F4F19950F900F90DF9165
:1007D000CF91089580E0F9CFBF92CF92DF92EF9250
:1007E000FF920F931F93CF93DF931F92CDB7DEB786
:1007F000FC01A281B381109709F43FC06115710516
:10080000E1F18B017C018BE18983ED91FC911197E2
:100810000480F581E02D41E050E0BE016F5F7F4F25
:10082000CD011995B82E882341F16801F8E0CF0E6B
:10083000D11CB8010F5F1F4FDB018C91882389F019
:10084000F70182819381DC01ED91FC910480F581B7
:10085000E02D41E050E01995882379F00C151D0535
:1008600041F78B2D0F90DF91CF911F910F91FF904A
:10087000EF90DF90CF90BF900895B12CF2CF80E041
:10088000089580E00895CF93DF931F92CDB7DEB730
:100890006983DC0112968D919C91009781F0DC01B7
:1008A000ED91FC910480F581E02D41E050E0BE0126
:1008B0006F5F7F4F19950F90DF91CF91089580E082
:1008C000FACF80E00895CF93DF931F92CDB7DEB7C4
:1008D000DC0112968D919C91009799F02CE0298370
:1008E000DC01ED91FC910480F581E02D41E050E0C8
:1008F000BE016F5F7F4F199581E00F90DF91CF911F
:10090000089580E0FACFCF93DF931F92CDB7DEB783
:10091000DC0112968D919C91009799F029E0298332
:10092000DC01ED91FC910480F581E02D41E050E087
:10093000BE016F5F7F4F199581E00F90DF91CF91DE
:10094000089580E0FACFCF93DF931F921F92CDB727
:10095000DEB729E429831A82DC01ED91FC91068C33
:10096000F78DE02DBE016F5F7F4F19950F900F90AF
:10097000DF91CF910895CF93DF931F92CDB7DEB76C
:10098000DC0112968D919C91009799F029E42983BE
:10099000DC01ED91FC910480F581E02D41E050E017
:1009A000BE016F5F7F4F199581E00F90DF91CF916E
:1009B000089580E0FACFFC0173836283089508955F
:1009C000FC01E05DFE4F2081621758F470E0655F26
:1009D0007F4F24E0660F771F2A95E1F7860F971F58
:1009E000089590E080E00895FC01E75CFE4F2081CF
:1009F000389780E0281729F09191961721F08F5FA2
:100A0000F9CF80E0089581E0089586559F4FFC015D
:100A1000808191816823792381E0672B09F480E04C
:100A20000895FC01EC5BFE4F81E09081961708F47D
:100A300080E008958C5B9E4FFC01808108958E5963
:100A40009F4F0895829608958E5B9E4FFC01808192
:100A500091810895805C9E4FFC0180819181089571
:100A6000825C9E4FFC01808191810895845C9E4F41
:100A7000FC01808191810895865C9E4FFC018081FC
:100A800091810895805D9E4FFC0180810895875C6F
:100A90009E4FFC018081089581559F4FFC0180810C
:100AA000089582559F4FFC018081089583559F4F83
:100AB000FC018081089584559F4FFC018081089539
:100AC00086559F4FFC0180819181089588559F4FE5
:100AD000FC018081918108958A559F4FFC0180819E
:100AE000918108958B559F4FFC01808108958C550D
:100AF0009F4FFC01808108958D559F4FFC0180819F
:100B000008958E559F4FFC01808108958E579F4F09
:100B1000089502960895CF93DF93FC010190002081
:100B2000E9F73197AF01481B590BBC0183E695E00B
:100B30000E949801EC0142E050E06EEC72E083E626
:100B400095E00E9498018C0F9D1FDF91CF91089531
:100B5000CF92DF92EF92FF920F931F93CF93DF9389
:100B6000EC018A819B81892B09F474C061157105A0
:100B700009F470C08C819D81009709F46BC0042F2B
:100B80007B01DC01ED91FC910680F781E02D199548
:100B9000182F8C819D81DC01ED91FC910480F58101
:100BA000E02D1995081708F055C0F70101900020B5
:100BB000E9F731976F01CE18DF08E881F9810684E3
:100BC000F785E02D40E0602FCE011C151D0409F0D3
:100BD00098F419958823F1F1E881F9810488F58961
:100BE000E02DB701CE01DF91CF911F910F91FF90C2
:100BF000EF90DF90CF9019941995882359F11C1923
:100C0000D12ED69400E0E881F981D01651F0028807
:100C1000F389E02D60E2CE0119958823D9F00F5FAA
:100C2000F2CF0488F589E02DB701CE011995F82E91
:100C3000882381F0E12C1D19E11668F4E881F9811F
:100C40000288F389E02D60E2CE011995882311F026
:100C5000E394F2CFF12C8F2DDF91CF911F910F9163
:100C6000FF90EF90DF90CF900895DC0112968D9168
:100C70009C91009791F06115710579F0FB0101904D
:100C80000020E9F73197AF01461B570BDC01ED91CE
:100C9000FC910480F581E02D199480E008950C9476
:100CA000400D0C94400D0C94400D0F931F93CF9367
:100CB000DF938C01EB0109900020E9F72197C61B17
:100CC000D70BC417D50710F0EA012197AE01C80170
:100CD0000E94C90DC00FD11F1882DF91CF911F91C3
:100CE0000F910895EF92FF920F931F93CF93DF938D
:100CF00061157105A1F07B01EC01FC01E05DFE4F87
:100D00000081C055DF4F10E0011749F0B701CE0157
:100D10000E94D20D6096892B51F01F5FF5CF80E0C5
:100D2000DF91CF911F910F91FF90EF90089581E097
:100D3000F7CF1F920F920FB60F9211242F933F936C
:100D40008F939F93AF93BF938091BE049091BF0404
:100D5000A091C004B091C1043091BD0423E0230FE1
:100D60002D3758F50196A11DB11D2093BD04809328
:100D7000BE049093BF04A093C004B093C1048091BB
:100D8000C2049091C304A091C404B091C50401961B
:100D9000A11DB11D8093C2049093C304A093C40409
:100DA000B093C504BF91AF919F918F913F912F91C7
:100DB0000F900FBE0F901F90189526E8230F0296F4
:100DC000A11DB11DD2CF1F920F920FB60F92112409
:100DD0000BB60F922F933F934F935F936F937F9335
:100DE0008F939F93AF93BF93EF93FF9386EC94E021
:100DF0000E941602FF91EF91BF91AF919F918F9149
:100E00007F916F915F914F913F912F910F900BBE0A
:100E10000F900FBE0F901F9018951F920F920FB654
:100E20000F9211240BB60F922F938F939F93EF93F2
:100E3000FF93E091D604F091D7048081E091DC0427
:100E4000F091DD0482FD1DC090818091DF048F5FF1
:100E50008F732091E004821741F0E091DF04F0E00D
:100E6000EA53FB4F958F8093DF04FF91EF919F91A1
:100E70008F912F910F900BBE0F900FBE0F901F9070
:100E800018958081F2CF1F920F920FB60F92112406
:100E90000BB60F922F933F934F935F936F937F9374
:100EA0008F939F93AF93BF93EF93FF9383E695E068
:100EB0000E941602FF91EF91BF91AF919F918F9188
:100EC0007F916F915F914F913F912F910F900BBE4A
:100ED0000F900FBE0F901F9018951F920F920FB694
:100EE0000F9211240BB60F922F938F939F93EF9332
:100EF000FF93E0917305F09174058081E09179058D
:100F0000F0917A0582FD1DC0908180917C058F5FF4
:100F10008F7320917D05821741F0E0917C05F0E010
:100F2000ED59FA4F958F80937C05FF91EF919F913A
:100F30008F912F910F900BBE0F900FBE0F901F90AF
:100F400018958081F2CFE6ECF4E01382128248EE2D
:100F500053E060E070E0448355836683778386EADC
:100F600092E0918380832DEC30E0358724872CEC50
:100F700030E03787268728EC30E0318B208B29EC56
:100F800030E0338B228B2AEC30E0358B248B2EEC37
:100F900030E0378B268B118E128E138E148EE3E683
:100FA000F5E01382128244835583668377839183AD
:100FB000808385EC90E09587848784EC90E0978728
:100FC000868780EC90E0918B808B81EC90E0938B16
:100FD000828B82EC90E0958B848B86EC90E0978BF3
:100FE000868B118E128E138E148E0895CF93DF93FD
:100FF000CDB7DEB72E970FB6F894DEBF0FBECDBFCC
:10100000789484B5826084BD84B5816084BD85B5E3
:10101000826085BD85B5816085BD80916E008160EF
:1010200080936E0010928100809181008260809395
:101030008100809181008160809381008091800097
:101040008160809380008091B10084608093B100C2
:101050008091B00081608093B000809191008260A7
:1010600080939100809191008160809391008091A4
:1010700090008160809390008091A10082608093B5
:10108000A1008091A10081608093A1008091A000C7
:1010900081608093A0008091210182608093210172
:1010A00080912101816080932101809120018160E4
:1010B0008093200180917A00846080937A008091EF
:1010C0007A00826080937A0080917A0081608093B8
:1010D0007A0080917A00806880937A001092C10033
:1010E000E091D604F091D70412E0D12ED082E091A5
:1010F000D204F091D3041082E091D404F091D5048D
:1011000087E680831092DE04E091DA04F091DB043C
:101110008EE08083E091D804F091D90480818061D1
:101120008083E091D804F091D90480818860808325
:10113000E091D804F091D904808180688083E091A7
:10114000D804F091D90480818F7D808386E090E07F
:101150000E94A40C7C0186E592E0D70111969C9335
:101160008E9313961C921E92129785E491E00E9432
:10117000A40C8C0186E192E0F80191838083EE5506
:10118000FF4FD082319684E18083319685E0808361
:10119000319688E08083319624E730E031832083E4
:1011A000329620E130E031832083329627ED32E120
:1011B00031832083329694E09083319680833196F8
:1011C0008083319680E180835801F0EDAF1AFEEF05
:1011D000BF0AD5011C926801B7ECCB1ABEEFDB0A3F
:1011E000F601108231968AE090E0918380833296F6
:1011F00084E690E091838083329691838083329657
:1012000084EF91E091838083329688EE93E091831E
:101210008083329681E08083C801029631F040E2FB
:1012200050E064EC72E00E945506C801829631F0ED
:1012300040E450E061ED72E00E945506C8018E590D
:101240009F4F31F040E250E060E173E00E945506AC
:10125000C8018E579F4F31F040E250E067E173E0E4
:101260000E945506D5018C918830A8F490E00B9629
:10127000B4E0880F991FBA95E1F7800F911F00978E
:1012800031F040E150E064E273E00E945506F50160
:1012900080818F5F8083D6018C91883040F4F80183
:1012A000E80FF11DEF5CFE4F10828F5F8C93F6010B
:1012B0008081883050F4F801E80FF11DEF5CFE4F9B
:1012C00093E090838F5FD6018C93F6018081883004
:1012D00050F4F801E80FF11DEF5CFE4F94E09083AD
:1012E0008F5FD6018C93F701158304838091AD0441
:1012F000811114C01092AC04ECE3F4E08CEA94E0A9
:1013000011821082138212821582148216823796FD
:101310008E179F07A9F781E08093AD040115110591
:1013200009F4A2C1D801ED91FC9106A8F7A9E02D1E
:10133000C80119956C01D801ED91FC9100A8F1A9A3
:10134000E02DC8011995AC018091AC04803108F002
:101350008BC12CE334E0E0E08E1709F475C1295FFE
:101360003F4FD90113976D917C910617170709F02C
:1013700053C0B7E0EB9FF0011124E45CFB4F1682F1
:1013800060E090E06C01E1E0CE1AD108A7E0BA2E4F
:10139000262F30E02C153D050CF066C170E08C0165
:1013A000021B130B01501109272F30E020173107C2
:1013B000ACF5F9013196B29EA001B39E500D1124F7
:1013C000445C5B4FBE9E9001BF9E300D1124245C97
:1013D0003B4FDA011696FC91D9011696EC91FE1757
:1013E000C8F4E7E0AE2EFA01DE01119601900D92ED
:1013F000AA94E1F7F7E0AF2EF901DA0101900D921E
:10140000AA94E1F747E0FE013196D90101900D92CF
:101410004A95E1F77F5FC8CFEF5F9ECF6F5FB8CF90
:1014200086E693E00E948B0534E0E32EF12C00E485
:1014300047E0C42ED12C8091BB049091BC049C0148
:1014400023703327E091B904F091BA04232B61F59E
:10145000808191810E94EE02E091B904F091BA047A
:1014600040E06DEE73E0808191810E94D902E091AD
:10147000B904F091BA0441E06DE074E0808191819B
:101480000E94D9028091BB049091BC040196909374
:10149000BC048093BB0460ED77E080E090E00E94A4
:1014A00066010E94A502C7CFB7010E94740C9C017F
:1014B000808191812130310539F50E94EE02E09161
:1014C000B904F091BA04808191810E94E702E09111
:1014D000B904F091BA046BEF73E0808191810E94AE
:1014E000E002E091B904F091BA04808191810E94F8
:1014F0003801E091B904F091BA0468E074E08081A9
:1015000091810E94E002BECF2230310509F066C011
:101510000E94EE02E091B904F091BA0480819181B9
:101520000E94E7028091BB049091BC0497FD039652
:101530009595879595958795B6010E94740C11E154
:10154000180FE091B904F091BA0480819181DC0117
:10155000ED91FC91048CF58DE02D612F1995E091B2
:10156000B904F091BA048823B1F163E174E0808199
:1015700091810E94E002E091B904F091BA04808167
:1015800091810E943801E091B904F091BA046DE1B3
:1015900074E0808191810E94E002163108F072CFE0
:1015A000E091B904F091BA0461E174E08081918125
:1015B0000E94E002E091B904F091BA048081918127
:1015C000612F6F70605DDC01ED91FC910288F38901
:1015D000E02D199557CF66E274E091CF0E94EE029C
:1015E000E091B904F091BA04808191810E94E702F0
:1015F000E091B904F091BA0462E374E080819181D2
:101600000E94E00209831A82E091B904F091BA04C1
:10161000BE016F5F7F4F808191810E94D20264EF93
:1016200071E080E090E00E946601E091B904F091E1
:10163000BA04808191810E943801E091B904F0914F
:10164000BA0463EE73E05BCFB7E08B9FF001112427
:10165000E45CFB4F51834083D382C28215830483B1
:1016600016828F5F8093AC04F092B804E092B704C6
:1016700086E090E00E94A40C8C01FC01138212828F
:1016800088E892E09183808386EC94E0958384835C
:101690001093B6040093B50486E090E00E94A40C79
:1016A0006C01DC011196FC92EE9213961C930E9342
:1016B000129715961C921E921497E114F10461F092
:1016C0000115110549F0D701ED91FC910480F581D8
:1016D000E02DB801C7011995D092BA04C092B9049F
:1016E000E0917305F091740582E08083E0917305C9
:1016F000F09174051082E0916F05F09170051082F1
:10170000E0917105F091720580E1808310927B0574
:10171000E0917705F091780586E08083E09175058A
:10172000F0917605808180618083E0917505F0916C
:101730007605808188608083E0917505F09176055B
:10174000808180688083E0917505F09176058081C5
:101750008F7D8083F60180819181009709F460CEAE
:1017600022813381232B09F45BCEDC01ED91FC91C6
:101770000680F781E02D1995882309F451CEE09178
:10178000B904F091BA04808191810E94E702E0914E
:10179000B904F091BA046BE273E0808191810E94F8
:1017A000E00260ED77E080E090E00E946601E09169
:1017B000B904F091BA04808191810E94EE02E09117
:1017C000B904F091BA0440E067E373E0808191814D
:1017D0000E94D902E091B904F091BA0441E060E4BA
:1017E00073E0808191810E94D90268EB7BE080E008
:1017F00090E00E946601E091B904F091BA04808102
:1018000091810E94EE0280E48D871E8680910602FF
:1018100090910702A09108028A879B87AC8789E094
:10182000E9E0F2E0DE01119601900D928A95E1F770
:101830008AE493E00E948B05E091B904F091BA0428
:10184000BE01635F7F4F808191810E94D202882315
:1018500021F087E793E00E948B0564EF71E080E060
:1018600090E00E946601E091B904F091BA04BE01D3
:10187000665F7F4F808191810E94D202882321F090
:101880008BE993E00E948B0564EF71E080E090E0CB
:101890000E946601E091B904F091BA04BE016F5F45
:1018A0007F4F808191810E94D202882321F08FEBAB
:1018B00093E00E948B0564EF71E080E090E00E946D
:1018C0006601E091B904F091BA04808191810E948F
:1018D000E702E091B904F091BA0463EE73E080810D
:1018E00091810E94E002A0CD97FB072E16F4009490
:1018F00007D077FD09D00E94880C07FC05D03EF484
:10190000909581959F4F0895709561957F4F0895AB
:10191000AA1BBB1B51E107C0AA1FBB1FA617B70715
:1019200010F0A61BB70B881F991F5A95A9F7809531
:101930009095BC01CD010895EE0FFF1F881F8BBF4E
:101940000790F691E02D19940F931F93CF93DF9397
:101950008230910510F482E090E0E0910206F0916F
:10196000030630E020E0B0E0A0E0309799F42115C4
:10197000310509F44AC0281B390B24303105D8F54C
:101980008A819B816115710589F1FB0193838283B3
:10199000FE0111C04081518102811381481759070E
:1019A000E0F04817590799F4109761F012960C93DC
:1019B000129713961C933296CF01DF91CF911F910E
:1019C0000F9108950093020610930306F4CF21159A
:1019D000310551F04217530738F0A901DB019A0194
:1019E000BD01DF01F801C1CFEF01F9CF90930306EC
:1019F00080930206CDCFFE01E20FF31F81939193F6
:101A00002250310939832883D7CF209100063091A5
:101A10000106232B41F420910202309103023093FE
:101A20000106209300062091000230910102211549
:101A3000310541F42DB73EB74091040250910502A3
:101A4000241B350BE0910006F0910106E217F30725
:101A5000A0F42E1B3F0B2817390778F0AC014E5F1E
:101A60005F4F2417350748F04E0F5F1F5093010654
:101A700040930006819391939FCFF0E0E0E09CCFEC
:101A8000CF93DF930097E9F0FC0132971382128223
:101A9000A0910206B0910306ED0130E020E010971E
:101AA000A1F420813181820F931F20910006309193
:101AB00001062817390709F061C0F0930106E09389
:101AC0000006DF91CF910895EA01CE17DF07E8F510
:101AD0004A815B819E0141155105B1F7E901FB8304
:101AE000EA8349915991C40FD51FEC17FD0761F4A2
:101AF000808191810296840F951FE90199838883E3
:101B0000828193819B838A83F0E0E0E012968D913D
:101B10009C9113970097B9F52D913C911197CD01A8
:101B20000296820F931F209100063091010628171C
:101B3000390739F6309751F51092030610920206D4
:101B4000B0930106A0930006BCCFD383C28340812B
:101B50005181840F951FC817D90761F44E5F5F4FFD
:101B600088819981480F591F518340838A819B81C5
:101B7000938382832115310509F0B0CFF0930306DA
:101B8000E09302069ECFFD01DC01C0CF13821282DA
:101B9000D7CFFB01DC0102C001900D9241505040B3
:101BA000D8F70895FB01DC018D9101908019011097
:0A1BB000D9F3990B0895F894FFCFC4
:101BBA0000000406800045010048010203040506EE
:101BCA00070000000000DF04530681057C05770545
:101BDA0072056C056605050560055B055605510528
:101BEA004C05F404470572064205E0043C05360537
:101BFA0030052A052405890522051F0586051A05CB
:101C0A00110500000000B1035106DB04BB04A30464
:101C1A00830463046104410443043506A8054104AE
:101C2A003F04CE03EC03CC03CA03C803C503C203B3
:101C3A00BE03B20300000000F5024F066503140359
:101C4A009B03070399039703FB02F902F602930326
:101C5A008F030000000038029801C5018502F601D1
:101C6A00D401E80153657269616C5472616E7370D4
:101C7A006F727400564644323053343031000D0AC4
:101C8A0000323078322056616375756D20466C7566
:101C9A006F72657363656E7420446973706C6179E1
:101CAA0020776974682035783820646F74206D61F4
:101CBA007472697820636861726163746572730013
:101CCA00467574616261005646443230533430318D
:101CDA004441310053657269616C0068656C6C6FD0
:101CEA002C20564644210043656E74657265640073
:101CFA00546578742044656D6F0054657374696E19
:101D0A0067206573636170652073657175656E63BD
:101D1A0065732E2E2E0056464420696E697420661D
:101D2A0061696C6564210045736361706520736540
:101D3A007175656E636520312073656E74207375E5
:101D4A00636365737366756C6C7900457363617060
:101D5A00652073657175656E636520322073656EE3
:101D6A0074207375636365737366756C6C7900456B
:101D7A0073636170652073657175656E6365203381
:101D8A002073656E74207375636365737366756C0F
:101D9A006C79004166746572204553430043656E51
:101DAA007465726564205465787400526567756C51
:101DBA006172205465787400416C736F20526F779A
:101DCA002031004D6F64652053657421004D6F64A6
:101DDA00653A203078004D6F6465204661696C650C
:0C1DEA0064004553432044656D6F000009
:00000001FF
